:0400000060EF00F0BD
:100008003182FACF29F0FBCF2AF0A0A60EEF00F03C
:1000180010EF00F026EF00F0A1A615EF00F017EFA3
:1000280000F026EF00F002D824EF00F00500FA6E89
:100038000F50FD6E1050FE6EF850FF6EFA50120011
:100048005AEF00F09DA62BEF00F02DEF00F036EFF1
:1000580000F09EA632EF00F034EF00F036EF00F02B
:1000680017EF00F0A0A23BEF00F03DEF00F048EFE3
:1000780000F0A1A242EF00F044EF00F048EF00F0DA
:100088009FEC03F05AEF00F09DA04DEF00F04FEF0A
:1000980000F05AEF00F09EA054EF00F056EF00F089
:1000A8005AEF00F0BDEC03F05AEF00F02AC0FBFF56
:1000B80029C0FAFF31921100ADEF04F09EEC04F074
:1000C800F28EF28CF28C3CEC04F0256E410E251871
:1000D800D8A471EF00F073EF00F076EF00F08B8298
:1000E80067EF00F05A0E2518D8A47DEF00F07FEFD7
:1000F80000F082EF00F08B9267EF00F04C0E2518AD
:10010800D8A489EF00F08BEF00F096EF00F0000E16
:100118002C6E010E2B6E010E2D6E5EEC03F08B849F
:1001280067EF00F0590E2518D8A49DEF00F09FEF57
:1001380000F0AAEF00F0000E2C6E010E2B6E000EE0
:100148002D6E5EEC03F08B9467EF00F0520E2518CD
:10015800D8A4B1EF00F0B3EF00F0BEEF00F0000E4E
:100168002C6E010E2B6E000E2D6E5EEC03F08C8A49
:1001780067EF00F0540E2518D8A4C5EF00F0C7EFBC
:1001880000F0D2EF00F0000E2C6E010E2B6E000E68
:100198002D6E5EEC03F08C9A67EF00F0420E251886
:1001A800D8A4D9EF00F0DBEF00F012EF02F08A8C50
:1001B8008A9E8A8A8C9A8B948B928B908C928C9044
:1001C8001250D8B4EAEF00F0ECEF00F0F4EF00F0D2
:1001D8001150D8A4F2EF00F0F4EF00F019EF01F09D
:1001E8001250D8A4FAEF00F0FCEF00F000EF01F095
:1001F8008A808A92010E126E1150D8A406EF01F07F
:1002080008EF01F00CEF01F08A848A96010E116E56
:10021800150E306E4B0E2F6EBE0EE82EFED72F2E0B
:10022800FCD7302EFAD700F000F08A908A928A9490
:100238008A96899A89988ABA24EF01F027EF01F003
:10024800010E28EF01F0000EFF0A2F6E2F3A2F46FD
:100258008A502F18DF0B2F188A6E050E306E0F0E7E
:100268002F6EF10EE82EFED72F2EFCD7302EFAD7A0
:1002780000F08ABA42EF01F045EF01F0010E46EFB7
:1002880001F0000EFF0A2F6E2F3A2F468A502F18C2
:10029800DF0B2F188A6E050E306E0F0E2F6EF10EC3
:1002A800E82EFED72F2EFCD7302EFAD700F08ABAC8
:1002B80060EF01F063EF01F0010E64EF01F0000E52
:1002C800FF0A2F6E2F3A2F468A502F18DF0B2F1850
:1002D8008A6E050E306E0F0E2F6EF10EE82EFED7C9
:1002E8002F2EFCD7302EFAD700F08ABA7EEF01F015
:1002F80081EF01F0010E82EF01F0000EFF0A2F6E70
:100308002F3A2F468A502F18DF0B2F188A6E050EAA
:10031800306E0F0E2F6EF10EE82EFED72F2EFCD763
:10032800302EFAD700F08ABA9CEF01F09FEF01F067
:10033800010EA0EF01F0000EFF0A2F6E2F3A2F4694
:100348008A502F18DF0B2F188A6E050E306E0F0E8D
:100358002F6EF10EE82EFED72F2EFCD7302EFAD7AF
:1003680000F08ABABAEF01F0BDEF01F0010EBEEF5E
:1003780001F0000EFF0A2F6E2F3A2F468A502F18D1
:10038800DF0B2F188A6E050E306E0F0E2F6EF10ED2
:10039800E82EFED72F2EFCD7302EFAD700F08ABAD7
:1003A800D8EF01F0DBEF01F0010EDCEF01F0000EF9
:1003B800FF0A2F6E2F3A2F468A502F18DF0B2F185F
:1003C8008A6E050E306E0F0E2F6EF10EE82EFED7D8
:1003D8002F2EFCD7302EFAD700F08ABAF6EF01F0AC
:1003E800F9EF01F0010EFAEF01F0000EFF0A2F6E8F
:1003F8002F3A2F468A502F18DF0B2F188A6E050EBA
:10040800306E0F0E2F6EF10EE82EFED72F2EFCD772
:10041800302EFAD700F08A8A67EF00F0460E2518CA
:10042800D8A419EF02F01BEF02F023EF02F08B9033
:100438008C928C908A9C8A9E8A9A67EF00F0470E6D
:100448002518D8A42AEF02F02CEF02F034EF02F0BE
:100458008B808C928C808A9C8A9E8A9A67EF00F0A7
:10046800510E2518D8A43BEF02F03DEF02F052EFF1
:1004780002F08A808A92150E306E4B0E2F6EBE0ED9
:10048800E82EFED72F2EFCD7302EFAD700F000F03A
:100498008A908A92010E126E67EF00F0570E2518A7
:1004A800D8A459EF02F05BEF02F070EF02F08A90E7
:1004B8008A82150E306E4B0E2F6EBE0EE82EFED7BA
:1004C8002F2EFCD7302EFAD700F000F08A908A92AF
:1004D800000E126E67EF00F0550E2518D8A477EFBE
:1004E80002F079EF02F08EEF02F08A848A96150EF8
:1004F800306E4B0E2F6EBE0EE82EFED72F2EFCD779
:10050800302EFAD700F000F08A948A96010E116E08
:1005180067EF00F0490E2518D8A495EF02F097EF81
:1005280002F0ACEF02F08A948A86150E306E4B0EFC
:100538002F6EBE0EE82EFED72F2EFCD7302EFAD700
:1005480000F000F08A948A96000E116E67EF00F0B2
:10055800560E2518D8A4B3EF02F0B5EF02F0B8EFA5
:1005680002F0898867EF00F0530E2518D8A4BFEF72
:1005780002F0C1EF02F0C4EF02F0899867EF00F0D3
:100588004D0E2518D8A4CBEF02F0CDEF02F0D0EF36
:1005980002F0898A67EF00F0500E2518D8A4D7EF2B
:1005A80002F0D9EF02F0DCEF02F0899A67EF00F071
:1005B80067EF00F060EF00F020EC05F0D8EC04F0F5
:1005C8000009D8B4EAEF02F0ECEF02F0FEEF02F017
:1005D800CEEC04F00009D8B4F4EF02F0F6EF02F024
:1005E800FAEF02F0010E176E3EEF03F0020E176EDF
:1005F8003EEF03F0CEEC04F00009D8B406EF03F0A8
:1006080008EF03F00CEF03F0030E176E3EEF03F054
:10061800040E176E3EEF03F025EC04F0BAEC04F07C
:100628000009D8B41AEF03F01CEF03F05BEF03F0F6
:10063800F7EC03F05BEF03F025EC04F05BEF03F05D
:10064800BAEC04F00009D8B42CEF03F02EEF03F055
:100658005BEF03F01CEF03F0C4EC04F00009D8B41E
:1006680038EF03F03AEF03F05BEF03F00EEC04F021
:100678005BEF03F01750276E286A2850000AD8B499
:1006880048EF03F05BEF03F02750010AD8B410EFEE
:1006980003F0030AD8B420EF03F0010AD8B424EF1A
:1006A80003F0070AD8B430EF03F05BEF03F01EEC59
:1006B80005F01200000EF2BE010E2E6E2C50030B38
:1006C800AA6E2BC0A9FF2DC0A8FFA69EA69CA68433
:1006D800F29E550EA76EAA0EA76EA682A6B277EF57
:1006E80003F079EF03F072EF03F0A6942EB002D076
:1006F800F29E01D0F28E1200080EB86E900EAB6E0C
:10070800240EAC6EA00EAF6E010EB06E000E2B6EF6
:10071800000E2C6E04EC05F0000E2B6E000E2C6EF5
:10072800FFEC04F0000E2B6E000E2C6E09EC05F0A9
:10073800000E166E1200A19201C026F002C027F02A
:1007480050EC04F01B501C10D8B4ADEF03F0AFEF21
:1007580003F0BCEF03F002D8BCEF03F00500FA6E1B
:100768001B50FD6E1C50FE6EF850FF6EFA501200C2
:1007780012009E9003C026F004C027F064EC04F039
:100788001D501E10D8B4CBEF03F0CDEF03F0DAEF15
:1007980003F002D8DAEF03F00500FA6E1D50FD6E83
:1007A8001E50FE6EF850FF6EFA5012001200000E36
:1007B8008D6E000E8C6E080E896E000E8A6E000E0D
:1007C8008B6E070E966ECF0E926E100E936EB80E4D
:1007D800946EDC0E956EFB0E7E6E1F0E7F6E000E05
:1007E8007C6EF18E12000B500C10D8B4FEEF03F0A3
:1007F80000EF04F00DEF04F002D80DEF04F005004F
:10080800FA6E0B50FD6E0C50FE6EF850FF6EFA50EB
:10081800120012000D500E10D8B415EF04F017EFA7
:1008280004F024EF04F002D824EF04F00500FA6E77
:100838000D50FD6E0E50FE6EF850FF6EFA5012000D
:10084800120009500A10D8B42CEF04F02EEF04F06F
:100858003BEF04F002D83BEF04F00500FA6E0950B4
:10086800FD6E0A50FE6EF850FF6EFA50120012002C
:100878009EAA41EF04F043EF04F03CEF04F0000EB1
:10088800166EABA24AEF04F04CEF04F04EEF04F002
:10089800AB98AB88AE501200B1A455EF04F057EFF7
:1008A80004F05FEF04F0B1902750B36E26C0B2FF9A
:1008B800B18063EF04F02750B36E26C0B2FF120078
:1008C800CDA469EF04F06BEF04F073EF04F0CD9062
:1008D8002750CF6E26C0CEFFCD8077EF04F027508B
:1008E800CF6E26C0CEFF1200E00EB36EC00EB26E01
:1008F800B2CF01F0B3CF02F0A192A082480E2B6EC6
:100908000A0E2C6EF0EC04F0010EB16E1200E00E2F
:10091800CF6EC00ECE6ECECF03F0CFCF04F09E9038
:100928009D804A0E2B6E0A0E2C6EF5EC04F0010E1B
:10093800CD6E1200EAEC04F0E2EC04F0DBEC03F01C
:10094800FAEC04F078EC04F08BEC04F080EC03F0A3
:10095800120000EE01F01A0EEE6AE806FDE1319091
:100968003192000EF86E000162EF00F0C7A0BFEFF1
:1009780004F0C2EF04F0010EC3EF04F0000E120001
:10098800C7B0C9EF04F0CCEF04F0010ECDEF04F0CE
:10099800000E1200C7B4D3EF04F0D6EF04F0010E36
:1009A800D7EF04F0000E1200C7AADDEF04F0E0EF65
:1009B80004F0010EE1EF04F0000E1200800EC76E85
:1009C800060EC612000EC56EC69A1200D08EA286FA
:1009D8009F86A2829F8012002BC01BF02CC01CF0A7
:1009E80012002BC01DF02CC01EF01200300ED36E6A
:1009F800000E9B6E12002BC021F02CC022F01200BA
:100A08002BC023F02CC024F012002BC01FF02CC0E8
:100A180020F012001A5012EC05F01200266E26C0C3
:100A2800C9FF120022EC05F0196E120022EC05F045
:100A3800186E1200C68812009E961200C950120045
:040A48001200120086
:020000040020DA
:08000000FFFFFFFFFFFFFFFF00
:020000040030CA
:0E000000FF021F1EFF8B85FF0FC00FE00F4099
:00000001FF
