:040000005BEF00F0C2
:100008004B82FACF32F0FBCF33F0D9CF34F0DACFCE
:1000180035F0F3CF36F0F4CF37F0F6CF38F0F7CF2E
:1000280039F0F8CF3AF0F5CF3BF0A0A61EEF00F07C
:1000380020EF00F035EF00F0A1A625EF00F027EF44
:1000480000F035EF00F002D833EF00F00500FA6E4B
:100058000D50FD6E0E50FE6EFF6AFA50120045EF0D
:1000680000F09DA63AEF00F03CEF00F045EF00F0FD
:100078009EA641EF00F043EF00F045EF00F027EFB8
:1000880000F03BC0F5FF3AC0F8FF39C0F7FF38C0B1
:10009800F6FF37C0F4FF36C0F3FF35C0DAFF34C0CF
:1000A800D9FF33C0FBFF32C0FAFF4B9211000BEFB0
:1000B8000FF0000E0001A56F000EA46F000EA66FD2
:1000C8003CEC0FF0000E0001A56F400EA46F000E6F
:1000D800A66F3CEC0FF013EC11F06BEC10F0F28E05
:1000E800F28CF28C000E0001A56F100EA46F4AC0AE
:1000F8009CF09D6B000E9F6F0A0E9E6FD4EC0AF069
:1001080000019C51A66F3CEC0FF0000E0001A56F9A
:10011800110EA46F4AC09CF09D6B000E9F6F0A0ED3
:100128009E6FF9EC0BF000019C51A66F3CEC0FF0B0
:10013800000E00019D6F000E9C6FCAEC10F01E6E41
:100148001E50D8A4AAEF00F0ACEF00F07FEF01F04A
:10015800290E0001AB6F960EAA6F7F0EE82EFED710
:10016800AA2FFCD7AB2FFAD792EC11F0D50E0001CD
:10017800A16FFF0EA26FC4EC0FF0010E0001A16F7A
:10018800020EF6EC0CF0BF0E0001A16FFF0EA26F7D
:10019800C4EC0FF0150E0001AB6F4B0EAA6FBE0E2C
:1001A800E82EFED7AA2FFCD7AB2FFAD700F092EC97
:1001B80011F0250E0001A16FFF0EA26FC4EC0FF025
:1001C800010E0001A16F020EF6EC0CF0790E000191
:1001D800A16FFF0EA26FC4EC0FF030EF01F0496879
:1001E800F9EF00F060EC0AF0496E4928D8B4FFEF47
:1001F80000F001EF01F0F6EF00F0400E1D24D96E7B
:10020800DA6A000EDA2249C0DFFF49501EEC11F00D
:10021800070E0001AB6F170EAA6F6A0EE82EFED705
:10022800AA2FFCD7AB2FFAD700F01D500C0F0001F6
:10023800A16F020EF6EC0CF02A0E1EEC11F0030E64
:100248000001AB6F080EAA6F770EE82EFED7AA2F13
:10025800FCD7AB2FFAD71D2A030E1D6436EF01F029
:1002680038EF01F0F3EF00F0000E0001A56F080E63
:10027800A46F40C0A6F03CEC0FF0000E0001A56F83
:10028800090EA46F41C0A6F03CEC0FF0000E00016F
:10029800A56F0A0EA46F42C0A6F03CEC0FF0000E4A
:1002A8000001A56F0B0EA46F43C0A6F03CEC0FF045
:1002B80092EC11F0B40E0001A16FFF0EA26FC4EC16
:1002C8000FF00B0E0001AB6F260EAA6F5D0EE82E25
:1002D800FED7AA2FFCD7AB2FFAD700F000F092EC8C
:1002E80011F01E2A000E0001A56F000EA46F1EC09B
:1002F800A6F03CEC0FF01F0E0001AB6F710EAA6F59
:100308001E0EE82EFED7AA2FFCD7AB2FFAD700F087
:100318004E0E4918D8B493EF01F095EF01F09DEF18
:1003280001F00F50D8A49BEF01F09DEF01F0A6EF6C
:1003380009F04968000E1D6E010E0F6ED70E000100
:10034800A16FFE0EA26FC4EC0FF0010E0001A16FA9
:10035800020EF6EC0CF0910E0001A16FFF0EA26FD9
:10036800C4EC0FF0000E00019D6F000E9C6FCAECEC
:1003780010F01E6E1F0E0001AB6F710EAA6F1E0EDD
:10038800E82EFED7AA2FFCD7AB2FFAD700F092ECB5
:1003980011F0F9EF02F0C60E0001A16FFE0EA26F78
:1003A800C4EC0FF0010E0001A16F020EF6EC0CF088
:1003B800790E0001A16FFF0EA26FC4EC0FF02DEFB4
:1003C80002F04968EBEF01F060EC0AF0496E492849
:1003D800D8B4F1EF01F0F3EF01F0E8EF01F04E0EC1
:1003E8004918D8A4FAEF01F0FCEF01F0FEEF01F094
:1003F80035EF02F03C0E1D24D96EDA6A000EDA22BF
:1004080049C0DFFF49501EEC11F0070E0001AB6F29
:10041800170EAA6F6A0EE82EFED7AA2FFCD7AB2FAD
:10042800FAD700F01D500C0F0001A16F020EF6EC78
:100438000CF02A0E1EEC11F0030E0001AB6F080E33
:10044800AA6F770EE82EFED7AA2FFCD7AB2FFAD7C4
:100458001D2A030E1D6433EF02F035EF02F0E5EFBD
:1004680001F04E0E4918D8A43CEF02F03EEF02F01E
:1004780040EF02F001EF03F0000E00019D6F080E3F
:100488009C6FCAEC10F03C18D8A44DEF02F04FEF67
:1004980002F099EF02F0000E00019D6F090E9C6FAB
:1004A800CAEC10F03D18D8A45CEF02F05EEF02F041
:1004B80099EF02F0000E00019D6F0A0E9C6FCAECC6
:1004C80010F03E18D8A46BEF02F06DEF02F099EF30
:1004D80002F0000E00019D6F0B0E9C6FCAEC10F02D
:1004E8003F18D8A47AEF02F07CEF02F099EF02F0FF
:1004F80092EC11F0F80E0001A16FFE0EA26FC4EC91
:100508000FF00B0E0001AB6F260EAA6F5D0EE82EE2
:10051800FED7AA2FFCD7AB2FFAD700F000F092EC49
:1005280011F0010E1B6EF9EF02F092EC11F0070EBC
:100538000001A16FFF0EA26FC4EC0FF0000E1D6E3C
:100548000B0E0001AB6F260EAA6F5D0EE82EFED7CC
:10055800AA2FFCD7AB2FFAD700F000F092EC11F0DD
:10056800020E1C60BAEF02F0BCEF02F0BFEF02F01F
:100578001C2AF9EF02F0000E0001AD6F390EAC6FC6
:10058800ADBFD2EF02F0AD5107E1310EAC5DD8B08E
:10059800D0EF02F0D2EF02F0D4EF02F0F9EF02F060
:1005A800340EA16FFF0EA26FC4EC0FF0040E000111
:1005B800A16F020EF6EC0CF00001AC511EEC11F02C
:1005C800150E0001AB6F4B0EAA6FBE0EE82EFED7BC
:1005D800AA2FFCD7AB2FFAD700F092EC11F000014C
:1005E800AC07D8A0AD07C4EF02F01B50D8B4FFEF9A
:1005F80002F001EF03F0CFEF01F04E0E4918D8A436
:1006080008EF03F00AEF03F00DEF03F049687FEFFE
:1006180001F09E0ED7EC10F01F6E000E00019D6FCA
:10062800400E9C6FCAEC10F01A6E1A04D8A41FEF83
:1006380003F021EF03F039EF03F01F504A5CD8B004
:1006480028EF03F02AEF03F039EF03F01950D8A48C
:1006580030EF03F032EF03F046EF03F0470EFBEC08
:1006680010F0010E196E46EF03F01904D8A43FEFFD
:1006780003F041EF03F046EF03F0460EFBEC10F0F9
:10068800000E196E92EC11F0E80E0001A16FFE0E3B
:10069800A26FC4EC0FF0010E0001A16F020EF6EC80
:1006A8000CF0B50E0001A16FFE0EA26FC4EC0FF0A6
:1006B800496862EF03F060EC0AF0496E4928D8B443
:1006C80068EF03F06AEF03F05FEF03F0310E4918AB
:1006D800D8A471EF03F073EF03F01AEF06F092EC71
:1006E80011F0150E0001AB6F4B0EAA6FBE0EE82E6F
:1006F800FED7AA2FFCD7AB2FFAD700F0E80E0001DF
:10070800A16FFF0EA26FC4EC0FF0010E0001A16FE4
:10071800020EF6EC0CF05E0E0001A16FFF0EA26F48
:10072800C4EC0FF049689CEF03F060EC0AF0496EE6
:100738004928D8B4A2EF03F0A4EF03F099EF03F02F
:10074800310E4918D8A4ABEF03F0ADEF03F02EEF4C
:1007580004F092EC11F0150E0001AB6F4B0EAA6F6E
:10076800BE0EE82EFED7AA2FFCD7AB2FFAD700F083
:10077800CA0E0001A16FFF0EA26FC4EC0FF049680A
:10078800C9EF03F060EC0AF0496E4928D8B4CFEFFE
:1007980003F0D1EF03F0C6EF03F0310E4918D8A4E7
:1007A800D8EF03F0DAEF03F0F2EF03F01750D8A414
:1007B800E0EF03F0E2EF03F00DEF03F0010E176E28
:1007C800410EFBEC10F0000E0001A56F800EA46F27
:1007D80017C0A6F03CEC0FF00DEF03F0320E4918ED
:1007E800D8A4F9EF03F0FBEF03F00AEF04F01704C5
:1007F800D8A401EF04F003EF04F00DEF03F05A0E54
:10080800FBEC10F0000E176EE7EF03F04E0E4918E0
:10081800D8A411EF04F013EF04F015EF04F00AEF79
:1008280003F092EC11F09D0E0001A16FFF0EA26F74
:10083800C4EC0FF00B0E0001AB6F260EAA6F5D0E15
:10084800E82EFED7AA2FFCD7AB2FFAD700F000F07E
:100858000DEF03F04E0E4918D8A435EF04F037EF2A
:1008680004F039EF04F00AEF03F0320E4918D8A467
:1008780040EF04F042EF04F00FEF06F092EC11F0B5
:100888000B0E0001AB6F260EAA6F5D0EE82EFED789
:10089800AA2FFCD7AB2FFAD700F000F07F0E00018B
:1008A800A16FFE0EA26FC4EC0FF0010E0001A16F44
:1008B800020EF6EC0CF06D0E0001A16FFE0EA26F99
:1008C800C4EC0FF049686CEF04F060EC0AF0496E74
:1008D8004928D8B472EF04F074EF04F069EF04F01B
:1008E800310E4918D8A47BEF04F07DEF04F0F3EF44
:1008F80004F092EC11F0150E0001AB6F4B0EAA6FCD
:10090800BE0EE82EFED7AA2FFCD7AB2FFAD700F0E1
:10091800850E0001A16FFF0EA26FC4EC0FF04968AD
:1009280099EF04F060EC0AF0496E4928D8B49FEFBB
:1009380004F0A1EF04F096EF04F0310E4918D8A4A2
:10094800A8EF04F0AAEF04F0BFEF04F01A50D8A4FF
:10095800B0EF04F0B2EF04F00DEF03F0010E1A6EE1
:10096800000E0001A56F400EA46F010EA66F3CECAF
:100978000FF00DEF03F0320E4918D8A4C6EF04F0BB
:10098800C8EF04F0DDEF04F01A04D8A4CEEF04F0A9
:10099800D0EF04F00DEF03F0000E1A6E000E000108
:1009A800A56F400EA46F000EA66F3CEC0FF00DEF84
:1009B80003F04E0E4918D8A4E4EF04F0E6EF04F073
:1009C800E8EF04F00AEF03F092EC11F09D0E00013D
:1009D800A16FFF0EA26FC4EC0FF01EEF04F04E0ED5
:1009E8004918D8A4FAEF04F0FCEF04F0FEEF04F085
:1009F8000AEF03F0320E4918D8A405EF05F007EF07
:100A080005F051EF05F092EC11F01A04D8A40FEF9D
:100A180005F011EF05F03BEF05F0DF0E0001A16FC7
:100A2800FF0EA26FC4EC0FF0010E0001A16F020EC1
:100A3800F6EC0CF0F80E0001A16FFF0EA26FC4ECEB
:100A48000FF0000E00019D6F100E9C6FCAEC10F0A5
:100A5800300F1EEC11F0000E00019D6F110E9C6FFF
:100A6800CAEC10F0300F1EEC11F042EF05F0A90EA1
:100A78000001A16FFF0EA26FC4EC0FF01F0E000162
:100A8800AB6F710EAA6F1E0EE82EFED7AA2FFCD7E9
:100A9800AB2FFAD700F00DEF03F0330E4918D8A4A6
:100AA80058EF05F05AEF05F00DEF03F092EC11F056
:100AB800420E0001A16FFF0EA26FC4EC0FF0DF0E13
:100AC8001EEC11F0430E1EEC11F00B0E0001A16F8D
:100AD800010EF6EC0CF0050E0001AB6F0F0EAA6FBD
:100AE800F10EE82EFED7AA2FFCD7AB2FFAD749680C
:100AF80081EF05F060EC0AF0496E4928D8B487EF19
:100B080005F089EF05F07EEF05F02F0E49648FEFB1
:100B180005F091EF05F099EF05F0390E496497EF6C
:100B280005F099EF05F0A4EF05F092EC11F09D0E99
:100B38000001A16FFF0EA26FC4EC0FF01EEF04F0CE
:100B480049501EEC11F04950D00F4A6E4968000E0A
:100B58000001A56F100EA46F4AC0A6F03CEC0FF080
:100B6800070E0001AB6F170EAA6F6A0EE82EFED7AC
:100B7800AA2FFCD7AB2FFAD700F0C6EF05F060EC30
:100B88000AF0496E4928D8B4CCEF05F0CEEF05F04D
:100B9800C3EF05F02F0E4964D4EF05F0D6EF05F04A
:100BA800DEEF05F0390E4964DCEF05F0DEEF05F005
:100BB800E9EF05F092EC11F09D0E0001A16FFF0E18
:100BC800A26FC4EC0FF01EEF04F049501EEC11F0B8
:100BD8004950D00F4A6E4968000E0001A56F110EEA
:100BE800A46F4AC0A6F03CEC0FF0000E00019D6F08
:100BF800110E9C6FCAEC10F00001AA6F000E9D6FD9
:100C0800100E9C6FCAEC10F00A0DF3500001AA25D3
:100C18004A6E0DEF03F092EC11F09D0E0001A16FEA
:100C2800FF0EA26FC4EC0FF01EEF04F0320E49184D
:100C3800D8A421EF06F023EF06F04BEF07F092EC73
:100C480011F0150E0001AB6F4B0EAA6FBE0EE82E09
:100C5800FED7AA2FFCD7AB2FFAD700F0910E0001D0
:100C6800A16FFE0EA26FC4EC0FF049683FEF06F0CB
:100C780060EC0AF0496E4928D8B445EF06F047EF12
:100C880006F03CEF06F0310E4918D8A44EEF06F0F6
:100C980050EF06F0C3EF06F092EC11F0150E0001CC
:100CA800AB6F4B0EAA6FBE0EE82EFED7AA2FFCD74D
:100CB800AB2FFAD700F0CA0E0001A16FFF0EA26F8A
:100CC800C4EC0FF049686CEF06F060EC0AF0496E6E
:100CD8004928D8B472EF06F074EF06F069EF06F011
:100CE800310E4918D8A47BEF06F07DEF06F095EF9A
:100CF80006F01650D8A483EF06F085EF06F00DEF46
:100D080003F04C0EFBEC10F0010E166E000E000105
:100D1800A56F810EA46F16C0A6F03CEC0FF00DEF86
:100D280003F04E0E4918D8A49CEF06F09EEF06F08B
:100D3800A0EF06F00AEF03F0320E4918D8A4A7EF87
:100D480006F0A9EF06F0B8EF06F01604D8A4AFEF46
:100D580006F0B1EF06F00DEF03F0590EFBEC10F0C2
:100D6800000E166E8AEF06F092EC11F09D0E00014F
:100D7800A16FFF0EA26FC4EC0FF01EEF04F04E0E31
:100D88004918D8A4CAEF06F0CCEF06F0CEEF06F06B
:100D98000AEF03F0320E4918D8A4D5EF06F0D7EFC2
:100DA80006F00DEF03F092EC11F00B0E0001AB6FA3
:100DB800260EAA6F5D0EE82EFED7AA2FFCD7AB2F02
:100DC800FAD700F000F06C0E0001A16FFF0EA26FC1
:100DD800C4EC0FF04968F4EF06F060EC0AF0496ED5
:100DE8004928D8B4FAEF06F0FCEF06F0F1EF06F068
:100DF800310E4918D8A403EF07F005EF07F01DEFEF
:100E080007F01350D8A40BEF07F00DEF07F00DEF24
:100E180003F0510EFBEC10F0010E136E000E0001F2
:100E2800A56F820EA46F13C0A6F03CEC0FF00DEF77
:100E380003F04E0E4918D8A424EF07F026EF07F068
:100E480028EF07F00AEF03F0320E4918D8A42FEF65
:100E580007F031EF07F040EF07F01304D8A437EF9D
:100E680007F039EF07F00DEF03F0570EFBEC10F029
:100E7800000E136E12EF07F092EC11F09D0E0001B8
:100E8800A16FFF0EA26FC4EC0FF01EEF04F0330E3B
:100E98004918D8A452EF07F054EF07F090EF09F083
:100EA80092EC11F0150E0001AB6F4B0EAA6FBE0E3F
:100EB800E82EFED7AA2FFCD7AB2FFAD700F0A30E47
:100EC8000001A16FFE0EA26FC4EC0FF0010E00012D
:100ED800A16F020EF6EC0CF0500E0001A16FFF0E90
:100EE800A26FC4EC0FF049687DEF07F060EC0AF0E0
:100EF800496E4928D8B483EF07F085EF07F07AEFF9
:100F080007F0310E4918D8A48CEF07F08EEF07F0E0
:100F1800F6EF07F092EC11F0150E0001AB6F4B0ED7
:100F2800AA6FBE0EE82EFED7AA2FFCD7AB2FFAD792
:100F380000F0CA0E0001A16FFF0EA26FC4EC0FF003
:100F48004968AAEF07F060EC0AF0496E4928D8B45E
:100F5800B0EF07F0B2EF07F0A7EF07F0310E49182E
:100F6800D8A4B9EF07F0BBEF07F0D3EF07F015509F
:100F7800D8A4C1EF07F0C3EF07F00DEF03F0520E4E
:100F8800FBEC10F0010E156E000E0001A56F830E2C
:100F9800A46F15C0A6F03CEC0FF00DEF03F0320E75
:100FA8004918D8A4DAEF07F0DCEF07F0EBEF07F009
:100FB8001504D8A4E2EF07F0E4EF07F00DEF03F013
:100FC800540EFBEC10F0000E156EC8EF07F092EC13
:100FD80011F09D0E0001A16FFF0EA26FC4EC0FF07F
:100FE8001EEF04F0320E4918D8A4FDEF07F0FFEF0A
:100FF80007F073EF08F092EC11F00B0E0001AB6FE5
:10100800260EAA6F5D0EE82EFED7AA2FFCD7AB2FAF
:10101800FAD700F000F06C0E0001A16FFF0EA26F6E
:10102800C4EC0FF049681CEF08F060EC0AF0496E58
:101038004928D8B422EF08F024EF08F019EF08F097
:10104800310E4918D8A42BEF08F02DEF08F045EF22
:1010580008F01250D8A433EF08F035EF08F00DEF80
:1010680003F0550EFBEC10F0010E126E000E00019D
:10107800A56F840EA46F12C0A6F03CEC0FF00DEF24
:1010880003F04E0E4918D8A44CEF08F04EEF08F0C4
:1010980050EF08F00AEF03F0320E4918D8A457EFC2
:1010A80008F059EF08F068EF08F01204D8A45FEFD1
:1010B80008F061EF08F00DEF03F0490EFBEC10F0BB
:1010C800000E126E3AEF08F092EC11F09D0E00013E
:1010D800A16FFF0EA26FC4EC0FF01EEF04F0330EE9
:1010E8004918D8A47AEF08F07CEF08F0F0EF08F080
:1010F80092EC11F00B0E0001AB6F260EAA6F5D0E7D
:10110800E82EFED7AA2FFCD7AB2FFAD700F000F0B5
:101118006C0E0001A16FFF0EA26FC4EC0FF04968BE
:1011280099EF08F060EC0AF0496E4928D8B49FEFAF
:1011380008F0A1EF08F096EF08F0310E4918D8A48E
:10114800A8EF08F0AAEF08F0C2EF08F01450D8A4EE
:10115800B0EF08F0B2EF08F00DEF03F0560EFBEC1D
:1011680010F0010E146E000E0001A56F850EA46F1D
:1011780014C0A6F03CEC0FF00DEF03F04E0E49182A
:10118800D8A4C9EF08F0CBEF08F0CDEF08F00AEFCC
:1011980003F0320E4918D8A4D4EF08F0D6EF08F0BF
:1011A800E5EF08F01404D8A4DCEF08F0DEEF08F04F
:1011B8000DEF03F0530EFBEC10F0000E146EB7EFBA
:1011C80008F092EC11F09D0E0001A16FFF0EA26FC6
:1011D800C4EC0FF01EEF04F0340E4918D8A4F7EF52
:1011E80008F0F9EF08F06DEF09F092EC11F00B0E32
:1011F8000001AB6F260EAA6F5D0EE82EFED7AA2F50
:10120800FCD7AB2FFAD700F000F06C0E0001A16FED
:10121800FF0EA26FC4EC0FF0496816EF09F060ECFE
:101228000AF0496E4928D8B41CEF09F01EEF09F0FE
:1012380013EF09F0310E4918D8A425EF09F027EF6C
:1012480009F03FEF09F01150D8A42DEF09F02FEF66
:1012580009F00DEF03F04D0EFBEC10F0010E116ECE
:10126800000E0001A56F860EA46F11C0A6F03CEC1D
:101278000FF00DEF03F04E0E4918D8A446EF09F011
:1012880048EF09F04AEF09F00AEF03F0320E491867
:10129800D8A451EF09F053EF09F062EF09F01104F7
:1012A800D8A459EF09F05BEF09F00DEF03F0500EE9
:1012B800FBEC10F0000E116E34EF09F092EC11F017
:1012C8009D0E0001A16FFF0EA26FC4EC0FF01EEF80
:1012D80004F04E0E4918D8A474EF09F076EF09F01F
:1012E80078EF09F00AEF03F092EC11F05B0E0001C1
:1012F800A16FFE0EA26FC4EC0FF0010E0001A16FEA
:10130800020EF6EC0CF0160E0001A16FFF0EA26F94
:10131800C4EC0FF00DEF03F04E0E4918D8A497EF68
:1013280009F099EF09F09BEF09F00AEF03F092EC4E
:1013380011F09D0E0001A16FFF0EA26FC4EC0FF01B
:101348001EEF04F092EC11F09E0ED7EC10F01F6E19
:10135800000E00019D6F110E9C6FCAEC10F0000189
:10136800AA6F000E9D6F100E9C6FCAEC10F00A0D4C
:10137800F3500001AA254A6E000E9D6F400E9C6F27
:10138800CAEC10F01A6E000E1B6E1A04D8A4CFEF28
:1013980009F0D1EF09F0FEEF09F01F504A5CD8B010
:1013A800D8EF09F0DAEF09F0FEEF09F0370E1F6009
:1013B800E0EF09F0E2EF09F0FEEF09F04850D8A499
:1013C800E8EF09F0EAEF09F0EFEF09F0470EFBEC60
:1013D80010F0010E486E1950D8A4F5EF09F0F7EF98
:1013E80009F0FEEF09F0470EFBEC10F0010E196E44
:1013F800000E106E1A50D8B404EF0AF006EF0AF087
:101408000FEF0AF04A501F5CD8B00DEF0AF00FEF4B
:101418000AF033EF0AF0370E1F6015EF0AF017EFE6
:101428000AF033EF0AF04850D8A41DEF0AF01FEF76
:101438000AF024EF0AF0460EFBEC10F0010E486E9D
:101448001904D8A42AEF0AF02CEF0AF033EF0AF0B7
:10145800460EFBEC10F0000E196E000E106E370EE3
:101468001F6439EF0AF03BEF0AF050EF0AF0105012
:10147800D8A441EF0AF043EF0AF050EF0AF0420E09
:10148800FBEC10F0010E106E000E486E000E196E87
:10149800010E136E010E126E60EC0AF0496E4E0ECC
:1014A8004918D8A45AEF0AF05CEF0AF0A6EF09F041
:1014B8007FEF01F05BEF00F00001A269000EA56F5D
:1014C800000EA46F000EA36F000EA56F000EA46F90
:1014D800000E9C6F440EA425D96EDA6A000EDA223B
:1014E800DF5099EC0BF00001A42B030EA4657FEFED
:1014F8000AF081EF0AF06CEF0AF0010E9C6F440EBF
:10150800A525D96EDA6A000EDA22DF5099EC0BF0C5
:10151800340E0001A06FF10EE82EFED7A02FFCD7E5
:1015280000F000F0000E0001A66FAE0EA625D96EE1
:10153800DA6A000EDA22DF5079EC0DF00001A36FB1
:10154800A305D8A4AAEF0AF0ACEF0AF0C0EF0AF09E
:10155800A551040D4B0EF324A06FFE0EF420A16FCD
:10156800A651A027000EA123A0C0F6FFA1C0F7FF37
:10157800F86A0800F5CFA2F0A62B030EA665C7EF00
:101588000AF0C9EF0AF099EF0AF0A52B030EA5653A
:10159800D0EF0AF0D2EF0AF06AEF0AF0A251120077
:1015A800000E0001A16F9FBFDEEF0AF0DCEF0AF02A
:1015B800E4EF0AF09E6D9F1FD8B09F2B010EA16F1C
:1015C8009DBFEBEF0AF0E9EF0AF0F1EF0AF09C6D2E
:1015D8009D1FD8B09D2B010EA11B000EA36F000EFE
:1015E800A26F9E519F11D8B4FCEF0AF0FEEF0AF0EB
:1015F80026EF0BF0010EA06F06EF0BF0D8909E3788
:101608009F37A02B9FAF0BEF0BF00DEF0BF002EF06
:101618000BF0D890A237A3379E519C5D9F519D59DE
:10162800D8A019EF0BF01BEF0BF020EF0BF09E5139
:101638009C5F9F519D5BA281D8909F339E33A02FC2
:101648000DEF0BF0A151D8B42CEF0BF02EEF0BF0EF
:1016580032EF0BF0A26DA31FD8B0A32BA2C09CF051
:10166800A3C09DF012003EEC11F00009D8B43FEF82
:101678000BF041EF0BF07CEF0BF04FEF0BF0AEEC03
:1016880011F098EF0BF0AAEC11F098EF0BF0A2EC28
:1016980011F098EF0BF072C02CF073C02DF002D847
:1016A80060EF0BF00500FA6E00016651FD6E6751A0
:1016B800FE6EFF6AFA5012002E6E2F6A2F50000A33
:1016C800D8B469EF0BF04BEF0BF02E50010AD8B4E9
:1016D8004BEF0BF0030AD8B443EF0BF0010AD8B470
:1016E80047EF0BF0070AD8B44BEF0BF04BEF0BF0BA
:1016F800000183917DC0D9FF7EC0DAFF7D4B7E2B30
:10170800DF50B2EC11F000017F07D8A080077F51AD
:101718008011D8A492EF0BF094EF0BF097EF0BF039
:10172800060E98EF0BF0030E120000019F6F0001E8
:101738009C05D8A4A2EF0BF0A4EF0BF0DBEF0BF0A5
:10174800B2EF0BF08A88F8EF0BF08A8AF8EF0BF00B
:101758008A8CF8EF0BF08A8EF8EF0BF09F519D6F93
:101768009E6B9E51000AD8B4BCEF0BF0F8EF0BF05B
:101778009D51010AD8B4A6EF0BF0030AD8B4A9EF1B
:101788000BF0010AD8B4ACEF0BF0070AD8B4AFEFEE
:101798000BF0F8EF0BF08A98F8EF0BF08A9AF8EF55
:1017A8000BF08A9CF8EF0BF08A9EF8EF0BF09F5134
:1017B8009D6F9E6B9E51000AD8B4E5EF0BF0F8EFD1
:1017C8000BF09D51010AD8B4CFEF0BF0030AD8B43F
:1017D800D2EF0BF0010AD8B4D5EF0BF0070AD8B452
:1017E800D8EF0BF0F8EF0BF01200000E0001A16F1C
:1017F8009DBF03EF0CF001EF0CF009EF0CF09C6DAE
:101808009D1FD8B09D2B010EA16F9FBF10EF0CF04C
:101818000EEF0CF014EF0CF09E6D9F1FD8B09F2BAD
:101828009E519F11D8B41BEF0CF01DEF0CF041EF47
:101838000CF0010EA06F25EF0CF0D8909E379F3763
:10184800A02B9FAF2AEF0CF02CEF0CF021EF0CF03F
:101858009E519C5D9F519D59D8A035EF0CF037EFF4
:101868000CF03BEF0CF09E519C5F9F519D5BD89014
:101878009F339E33A02F2CEF0CF0A151D8B447EF23
:101888000CF049EF0CF04DEF0CF09C6D9D1FD8B09B
:101898009D2B9CC09CF09DC09DF01200CFEC11F0D8
:1018A8007DC0D9FF7EC0DAFFDF6E00017D4B7E2B45
:1018B8007F07D8A080077F518011D8B466EF0CF05D
:1018C80068EF0CF06DEF0CF0B9EC11F0050EA4EF19
:1018D8000CF0838778EF0CF096EC11F0A4EF0CF085
:1018E8009AEC11F0A4EF0CF06CC02CF06DC02DF048
:1018F80002D888EF0CF00500FA6E6051FD6E615158
:10190800FE6EFF6AFA5012002E6E2F6A2F50000AE0
:10191800D8B491EF0CF074EF0CF02E50010AD8B443
:1019280074EF0CF0030AD8B470EF0CF0010AD8B4C5
:1019380070EF0CF0070AD8B474EF0CF074EF0CF0E9
:10194800120000019E6F010E00019F6F83B5AFEF7B
:101958000CF0B1EF0CF0F4EF0CF09EC07CF0839328
:10196800838583910E0E816F010E7B6FF40E7A6F63
:101978008387AA0E606F230E616F000E6C6F000ED6
:101988006D6FAA0E626F230E636F000E6E6F000EEE
:101998006F6FAA0E646F230E656F000E706F000ED6
:1019A800716FAA0E666F230E676F000E726F000EBE
:1019B800736FA60E686F230E696F000E746F000EAA
:1019C800756F6C0E9C6F230E9D6F71EC11F0C9EC56
:1019D80011F0B9EC10F0C1EC11F0000E00019F6F8E
:1019E8009F5112000001A36F030E0001A361FFEFD6
:1019F8000CF001EF0DF019EF0DF0A351D8B407EF7B
:101A08000DF009EF0DF019EF0DF0110EA1610FEFB8
:101A18000DF011EF0DF019EF0DF0A151D8A417EF4B
:101A28000DF019EF0DF01BEF0DF0800EA26FA3055E
:101A3800D8A421EF0DF023EF0DF028EF0DF0A15100
:101A48007F0FA26F34EF0DF0020EA319D8A42FEF69
:101A58000DF031EF0DF034EF0DF0A151BF0FA26F73
:101A6800A25129EC11F012000001A66F000E00012E
:101A7800A76F0001A651A5EC0CF00009D8B447EFF8
:101A88000DF049EF0DF03DEF0DF07E0E0001A16F56
:101A9800200EA26FA70EA36F000EA46FE3EC10F048
:101AA800A50E00019C6F000E9D6F000E9F6F010E2A
:101AB8009E6F95EC10F0000E0001A16F000EA26F52
:101AC800000EA36F000EA46FEFEC10F08AEC11F07B
:101AD800FCEC0FF0E806D8B474EF0DF076EF0DF0DB
:101AE8006CEF0DF00001A751120000019E6F000E6F
:101AF80000019F6F98EF0DF0000E81B0010E9F6FEF
:101B0800B5EF0DF0000E81B2010E9F6FB5EF0DF02D
:101B1800000E81B4010E9F6FB5EF0DF0000E81B677
:101B2800010E9F6FB5EF0DF09E519C6F9D6B9D51FF
:101B3800000AD8B4A2EF0DF0B5EF0DF09C51010AE0
:101B4800D8B480EF0DF0030AD8B486EF0DF0010A7F
:101B5800D8B48CEF0DF0070AD8B492EF0DF0B5EFBA
:101B68000DF09F51120000018387C8EF0DF0A6EC1D
:101B780011F0F4EF0DF0CDEC11F0030EF4EF0DF0D1
:101B8800A2EC11F0F4EF0DF06CC02CF06DC02DF04C
:101B980002D8D8EF0DF00500FA6E6051FD6E615164
:101BA800FE6EFF6AFA5012002E6E2F6A2F50000A3E
:101BB800D8B4E1EF0DF0C4EF0DF02E50010AD8B4FF
:101BC800C4EF0DF0030AD8B4BBEF0DF0010AD8B486
:101BD800BBEF0DF0070AD8B4BFEF0DF0C4EF0DF05E
:101BE80012000001A06F00019C519D11D8B4FFEFB5
:101BF8000DF001EF0EF01BEF0EF0A051020D600E7C
:101C0800F324D96E000EF420DA6E9CC0DEFF9DC06E
:101C1800DDFFA051020D6C0EF324D96E000EF420E6
:101C2800DA6E9EC0DEFF9FC0DDFF31EF0EF0A051DF
:101C3800020D600EF324D96E000EF420DA6EAA0E9F
:101C4800DE6E230EDD6EA051020D6C0EF324D96EEC
:101C5800000EF420DA6EDE6ADD6A1200276E235069
:101C68002410D8B43AEF0EF03CEF0EF056EF0EF019
:101C78002750020D600EF324D96E000EF420DA6EA0
:101C880023C0DEFF24C0DDFF2750020D6C0EF324B5
:101C9800D96E000EF420DA6E25C0DEFF26C0DDFF07
:101CA8006CEF0EF02750020D600EF324D96E000E73
:101CB800F420DA6EAA0EDE6E230EDD6E2750020DBA
:101CC8006C0EF324D96E000EF420DA6EDE6ADD6A3B
:101CD8001200CBEC11F0000183A175EF0EF077EF45
:101CE8000EF084EF0EF03EEC11F00009D8B47FEF4F
:101CF8000EF081EF0EF084EF0EF00F0E0001816FF1
:101D080000018151020D2B0EF324F66EFE0EF42015
:101D1800F76EF86A000EF8220900F5CF30F00900D6
:101D2800F5CF31F002D8A2EF0EF00500FA6E305070
:101D3800FD6E3150FE6EFF6AFA5012000001816F8D
:101D4800120000019F6FB9EF0EF09CC080FFD7EF23
:101D58000EF09CC081FFD7EF0EF09CC082FFD7EF3A
:101D68000EF09CC083FFD7EF0EF000019F519D6FCE
:101D78009E6B9E51000AD8B4C4EF0EF0D7EF0EF058
:101D88009D51410AD8B4A9EF0EF0030AD8B4ADEFBB
:101D98000EF0010AD8B4B1EF0EF0070AD8B4B5EFC7
:101DA8000EF0D7EF0EF0120000018391020E826F41
:101DB800E6EF0EF0A6EC11F00AEF0FF0A2EC11F02E
:101DC8000AEF0FF070C02CF071C02DF002D8F6EFBA
:101DD8000EF00500FA6E6451FD6E6551FE6EFF6AE5
:101DE800FA5012002E6E2F6A2F50000AD8B4FFEF57
:101DF8000EF0E2EF0EF02E50020AD8B4DEEF0EF02D
:101E0800010AD8B4DEEF0EF0E2EF0EF012007E0EFB
:101E1800F66E230EF76E000EF86E00EEAEF010EEC2
:101E280004F00900F5CFEEFFE550E150FAE1A00E0D
:101E3800F66E220EF76E000EF86E00EE3CF010EE15
:101E48000FF00900F5CFEEFFE550E150FAE100EEA2
:101E580060F03C0EEE6AE806FDE100EE01F0220EAD
:101E6800EE6AE806FDE14B904B9200015DEF00F051
:101E7800000EF2BE010E0001A76FA551030BAA6E5A
:101E8800A4C0A9FFA6C0A8FFA69EA69CA684F29EF1
:101E9800550EA76EAA0EA76EA682A6B256EF0FF031
:101EA80058EF0FF051EF0FF0A6940001A7B102D040
:101EB800F29E01D0F28E120000019C6F010E00010B
:101EC8009D6F83B36AEF0FF06CEF0FF07FEF0FF0A9
:101ED8008383000E9D6F9C51D8B475EF0FF077EF98
:101EE8000FF07BEF0FF0010E816F7DEF0FF0020E08
:101EF800816FC3EC11F000019D511200080EB86EFD
:101F0800900EAB6E240EAC6EA00EAF6E010EB06ECE
:101F1800000E00019C6F000E9D6F80EC11F0000E0A
:101F280000019C6F000E9D6F7BEC11F0000E00010C
:101F38009C6F000E9D6F85EC11F0000E226E120052
:101F480020EE02F02C50D9262D50DA22DECF23F0D5
:101F5800DDCF24F02CC0D9FF2DC0DAFFDECF25F06D
:101F6800DDCF26F0A7EC10F0000E286E000E296ECB
:101F7800000E2A6E000E2B6E07EC11F0020E1200F6
:101F8800D2EF0FF0A1C0F6FFA2C0F7FFF86A080071
:101F9800F5501EEC11F00001A14BA22BA1C0F6FFD9
:101FA800A2C0F7FFF86A0800F5500009D8A4DFEFCF
:101FB8000FF0E1EF0FF0C6EF0FF01200000E8D6E7C
:101FC800000E8C6E000E896E000E8A6E000E8B6EEF
:101FD800070E966E92680F0E936EB80E946E000EF2
:101FE800956E7E68080E7F6E000E7C6EF18E120074
:101FF800010E00019C6F83B304EF10F006EF10F0A0
:1020080010EF10F083957C69C9EC11F0C5EC11F064
:10201800C7EC11F082C09CF000019C5112002CC04A
:1020280023F02DC024F0000E266E010E256EA7ECBD
:1020380010F0000E286E000E296E000E2A6E000E9B
:102048002B6E07EC11F0040E12002CC023F02DC0EB
:1020580024F0000E266E020E256EA7EC10F0000E7E
:10206800286E000E296E000E2A6E000E2B6E07ECED
:1020780011F0020E12002CC023F02DC024F0000E27
:10208800266E010E256EA7EC10F0000E286E000ECD
:10209800296E000E2A6E000E2B6E07EC11F0020E50
:1020A80012002CC023F02DC024F0000E266E020E64
:1020B800256EA7EC10F0000E286E000E296E000E9B
:1020C8002A6E000E2B6E07EC11F0040E12008B9294
:1020D800380E29EC11F0010E29EC11F00E0E29EC46
:1020E80011F0340E0001A16FF10EE82EFED7A12FDA
:1020F800FCD700F000F012008B840B0E00019C6FDF
:10210800620EE82EFED79C2FFCD700F08B940B0EA6
:1021180000019C6F620EE82EFED79C2FFCD700F0C2
:102128001200000183A79BEF10F09DEF10F0A6EFBF
:1021380010F09CC07DF09DC07EF09EC07FF09FC0D7
:1021480080F083971200000183A7ADEF10F0AFEF86
:1021580010F0B8EF10F023C07DF024C07EF025C049
:102168007FF026C080F083971200C6BABEEF10F049
:10217800C0EF10F0C9EF10F0800EC76E080EC66EE3
:10218800000EC56E270EC86EC68A120000019D514A
:10219800030BAA6E9CC0A9FFA69CA69EA68000F071
:1021A80000F0A85012000001A86F000E0001A56FF2
:1021B800A85138EC0DF00001A96FA9511200A1C077
:1021C8009CF0A2C09DF0A3C09EF0A4C09FF0000E9A
:1021D800F5EC0DF01200A1C09CF0A2C09DF0A3C0C8
:1021E8009EF0A4C09FF0020EF5EC0DF01200000165
:1021F8009C6F9EA802EF11F004EF11F0FDEF10F0B4
:102208009CC0ADFF120028C023F029C024F02AC0CA
:1022180025F02BC026F0000E32EC0EF01200E2EC96
:102228000FF076EC11F08EEC11F034EC11F082EC3A
:102238000FF012000001A06FA0C09CF0440EA5ECA6
:102248000EF08B8080EC10F012000001A06FA0C08F
:102258009CF0440EA5EC0EF08B9080EC10F0120070
:10226800800EC76E080EC66E000EC56E270EC86EAD
:10227800C69A1200C5BC43EF11F046EF11F0010EEB
:1022880047EF11F0000E1200000183817C51010913
:10229800B2EC11F0050E1200FFFFFFFFFFFFFFFF7A
:0722A80001020304FFFF1E09
:1022B000000183817C51B2EC11F0030E1200000189
:1022C0008393000E826F0E0E120000018391D1ECF9
:1022D00011F0040E120000018393000E826F0E0EA7
:1022E00012009CC00DF09DC00EF01200300ED36E97
:1022F000000E9B6E12009CC009F09DC00AF01200F7
:102300009CC00BF09DC00CF012009CC007F09DC05B
:1023100008F01200000E60EC0FF01200D08EA286C2
:102320009F861200010E29EC11F01200BCEC11F096
:10233000090E1200BCEC11F00A0E1200B9EC11F0FB
:10234000050E1200D7EC11F0000E1200D9EC11F0BE
:10235000010E1200D9EC11F0020E1200D9EC11F0AE
:10236000010E1200236E23C0C9FF12006DEC0EF0A7
:102370001200C59AC5881200C58AC58812000102DC
:1023800003049D861200C58012009D961200C69A15
:1023900012009E9612009E9612009E861200C95050
:1023A0001200C5861200050E1200010E1200C5842F
:0623B0001200C5821200BC
:10FE2A0000D6229022B0226E16A418CA226E1B5C3B
:10FE3A002354234C2344233C2334232C23BE22B0B3
:10FE4A001D4E303D2B3132332D3435362A37383971
:10FE5A002F706C656173652073656C656374206FC0
:10FE6A006E6500332D5365742074656D706572611B
:10FE7A007475726500313A436F6E74726F6C20321A
:10FE8A003A737461746500313A4C69676874203258
:10FE9A003A57696E646F777300313A4C69676874D0
:10FEAA0020323A77696E646F777300333A526F6F14
:10FEBA006D33204F4E2F433A4F666600456E746588
:10FECA007220677565737420706173730057656C6F
:10FEDA00636F6D6520746F20736D61727400313ABF
:10FEEA00526F6F6D3120323A526F6F6D32004C6F24
:10FEFA0067696E20417070726F7665640057726F21
:10FF0A006E672050617373776F7264006F66207436
:10FF1A006865206F7074696F6E730053657420672B
:10FF2A0075657374207061737300506C65617365D5
:10FF3A0020776169743A20005365742074656D7086
:10FF4A002E3A5F5F2000333A54562020343A5261E9
:10FF5A0064696F00323A636F6E646974696F6E65C3
:10FF6A007200312D4F4E202020322D4F4646004739
:10FF7A007565737420506173733A00312D204F6E8A
:10FF8A0020322D4F666600686F6D65207379737431
:10FF9A00656D0057726F6E6720696E7075740073B5
:10FFAA00746174653A204F4646005061737320535A
:10FFBA00617665640066697273742074696D6500A0
:10FFCA00312D4F6E20322D4F6666004C6F67696E79
:10FFDA0020666F720073746174653A4F4E00313A4D
:10FFEA004C696768740044617465203A200054655E
:06FFFA006D703A200000CA
:020000040020DA
:08000000FFFFFFFFFFFFFFFF00
:020000040030CA
:0E000000FF021F1EFF8B85FF0FC00FE00F4099
:00000001FF
